:020000040000FA
:020000002528B1
:06000A0082077434783413
:1000100074343134203469347A342034743478348C
:100020007434313420346434653482077434783461
:1000300074343234203469347A342034743478346B
:100040007434323420346434653400308D080D0843
:1000500005208D0A0E300D0203192F2827280030A5
:100060008E080E0815208E0A0E300E02031939284C
:0400700031283928D2
:040074000034003420
:08007800831686018501831245
:1000800005100511080085148316FF3086008312C1
:1000900005150000861B4A28051183168601831268
:1000A00085100800051500000511000008003C201F
:1000B00086004320051452283C2086004320522805
:1000C0000510860052283C20383060207B203830D4
:1000D000602001307A203830602001307A200130F1
:1000E0005C2008003C2038305C200C305C2006305E
:1000F0005C2008007C280A308C008D018D0B7E2846
:060100008C0B7E280800B4
:02400E00FB3F76
:00000001FF
