:020000040000FA
:020000005F2877
:080008009600030E9700013081
:10001000980740301802031D29280030980003304B
:10002000990006089A0000308600FA309B004030A4
:100030009C009C0B19289B0B17281A088600FA3085
:100040009B0040309C009C0B23289B0B2128990B84
:1000500011280B11170E8300960E160E0900820749
:10006000FC346034DA34F2346634B634BE34E0340E
:10007000FE34F6341118552814141114552891180B
:1000800058289418452894144628941091145828F8
:1000900005309500000000000000950B50285E28F8
:1000A000FF308E0005183A28111085183F2891104E
:1000B0008D0B5B284D288E0B5B28502808000030E4
:1000C00098008B178B1683160730810083128316D6
:1000D00086018312860100308F0090009400033067
:1000E0009100013093000F082F20941879281007F1
:1000F000860013088F07FF300F02031D862801308A
:100100008F07013093000030900090280A300F02D2
:10011000031D902801308F02FF30930001309000C2
:10012000FF308D004820141C9A288F019001141074
:060130000130930073286A
:02400E00FB3F76
:00000001FF
